{
  "contractName": "offering",
  "abi": [
    {
      "inputs": [
        {
          "internalType": "string",
          "name": "_name",
          "type": "string"
        },
        {
          "internalType": "string",
          "name": "_symbol",
          "type": "string"
        },
        {
          "internalType": "uint256",
          "name": "_initial_supply",
          "type": "uint256"
        }
      ],
      "stateMutability": "nonpayable",
      "type": "constructor"
    },
    {
      "anonymous": false,
      "inputs": [
        {
          "indexed": true,
          "internalType": "address",
          "name": "owner",
          "type": "address"
        },
        {
          "indexed": true,
          "internalType": "address",
          "name": "spender",
          "type": "address"
        },
        {
          "indexed": false,
          "internalType": "uint256",
          "name": "value",
          "type": "uint256"
        }
      ],
      "name": "Approval",
      "type": "event"
    },
    {
      "anonymous": false,
      "inputs": [
        {
          "indexed": true,
          "internalType": "address",
          "name": "from",
          "type": "address"
        },
        {
          "indexed": true,
          "internalType": "address",
          "name": "to",
          "type": "address"
        },
        {
          "indexed": false,
          "internalType": "uint256",
          "name": "value",
          "type": "uint256"
        }
      ],
      "name": "Transfer",
      "type": "event"
    },
    {
      "anonymous": false,
      "inputs": [
        {
          "indexed": false,
          "internalType": "string",
          "name": "",
          "type": "string"
        }
      ],
      "name": "success",
      "type": "event"
    },
    {
      "inputs": [
        {
          "internalType": "address",
          "name": "owner",
          "type": "address"
        },
        {
          "internalType": "address",
          "name": "spender",
          "type": "address"
        }
      ],
      "name": "allowance",
      "outputs": [
        {
          "internalType": "uint256",
          "name": "",
          "type": "uint256"
        }
      ],
      "stateMutability": "view",
      "type": "function",
      "constant": true
    },
    {
      "inputs": [
        {
          "internalType": "address",
          "name": "spender",
          "type": "address"
        },
        {
          "internalType": "uint256",
          "name": "amount",
          "type": "uint256"
        }
      ],
      "name": "approve",
      "outputs": [
        {
          "internalType": "bool",
          "name": "",
          "type": "bool"
        }
      ],
      "stateMutability": "nonpayable",
      "type": "function"
    },
    {
      "inputs": [
        {
          "internalType": "address",
          "name": "account",
          "type": "address"
        }
      ],
      "name": "balanceOf",
      "outputs": [
        {
          "internalType": "uint256",
          "name": "",
          "type": "uint256"
        }
      ],
      "stateMutability": "view",
      "type": "function",
      "constant": true
    },
    {
      "inputs": [],
      "name": "decimals",
      "outputs": [
        {
          "internalType": "uint8",
          "name": "",
          "type": "uint8"
        }
      ],
      "stateMutability": "view",
      "type": "function",
      "constant": true
    },
    {
      "inputs": [
        {
          "internalType": "address",
          "name": "spender",
          "type": "address"
        },
        {
          "internalType": "uint256",
          "name": "subtractedValue",
          "type": "uint256"
        }
      ],
      "name": "decreaseAllowance",
      "outputs": [
        {
          "internalType": "bool",
          "name": "",
          "type": "bool"
        }
      ],
      "stateMutability": "nonpayable",
      "type": "function"
    },
    {
      "inputs": [
        {
          "internalType": "address",
          "name": "spender",
          "type": "address"
        },
        {
          "internalType": "uint256",
          "name": "addedValue",
          "type": "uint256"
        }
      ],
      "name": "increaseAllowance",
      "outputs": [
        {
          "internalType": "bool",
          "name": "",
          "type": "bool"
        }
      ],
      "stateMutability": "nonpayable",
      "type": "function"
    },
    {
      "inputs": [],
      "name": "name",
      "outputs": [
        {
          "internalType": "string",
          "name": "",
          "type": "string"
        }
      ],
      "stateMutability": "view",
      "type": "function",
      "constant": true
    },
    {
      "inputs": [],
      "name": "owner",
      "outputs": [
        {
          "internalType": "address",
          "name": "",
          "type": "address"
        }
      ],
      "stateMutability": "view",
      "type": "function",
      "constant": true
    },
    {
      "inputs": [],
      "name": "quantity",
      "outputs": [
        {
          "internalType": "uint256",
          "name": "",
          "type": "uint256"
        }
      ],
      "stateMutability": "view",
      "type": "function",
      "constant": true
    },
    {
      "inputs": [],
      "name": "saleName",
      "outputs": [
        {
          "internalType": "string",
          "name": "",
          "type": "string"
        }
      ],
      "stateMutability": "view",
      "type": "function",
      "constant": true
    },
    {
      "inputs": [],
      "name": "symbol",
      "outputs": [
        {
          "internalType": "string",
          "name": "",
          "type": "string"
        }
      ],
      "stateMutability": "view",
      "type": "function",
      "constant": true
    },
    {
      "inputs": [],
      "name": "totalSupply",
      "outputs": [
        {
          "internalType": "uint256",
          "name": "",
          "type": "uint256"
        }
      ],
      "stateMutability": "view",
      "type": "function",
      "constant": true
    },
    {
      "inputs": [
        {
          "internalType": "address",
          "name": "recipient",
          "type": "address"
        },
        {
          "internalType": "uint256",
          "name": "amount",
          "type": "uint256"
        }
      ],
      "name": "transfer",
      "outputs": [
        {
          "internalType": "bool",
          "name": "",
          "type": "bool"
        }
      ],
      "stateMutability": "nonpayable",
      "type": "function"
    },
    {
      "inputs": [
        {
          "internalType": "address",
          "name": "sender",
          "type": "address"
        },
        {
          "internalType": "address",
          "name": "recipient",
          "type": "address"
        },
        {
          "internalType": "uint256",
          "name": "amount",
          "type": "uint256"
        }
      ],
      "name": "transferFrom",
      "outputs": [
        {
          "internalType": "bool",
          "name": "",
          "type": "bool"
        }
      ],
      "stateMutability": "nonpayable",
      "type": "function"
    },
    {
      "inputs": [],
      "name": "startPreSale",
      "outputs": [],
      "stateMutability": "nonpayable",
      "type": "function"
    },
    {
      "inputs": [
        {
          "internalType": "uint256",
          "name": "_amount",
          "type": "uint256"
        }
      ],
      "name": "rechargeMyWallet",
      "outputs": [],
      "stateMutability": "nonpayable",
      "type": "function"
    },
    {
      "inputs": [],
      "name": "myWalletBalance",
      "outputs": [
        {
          "internalType": "uint256",
          "name": "",
          "type": "uint256"
        }
      ],
      "stateMutability": "view",
      "type": "function",
      "constant": true
    },
    {
      "inputs": [],
      "name": "startSale",
      "outputs": [],
      "stateMutability": "nonpayable",
      "type": "function"
    },
    {
      "inputs": [],
      "name": "stopSale",
      "outputs": [],
      "stateMutability": "nonpayable",
      "type": "function"
    },
    {
      "inputs": [
        {
          "internalType": "uint256",
          "name": "_amount",
          "type": "uint256"
        }
      ],
      "name": "buyCoin",
      "outputs": [],
      "stateMutability": "payable",
      "type": "function",
      "payable": true
    }
  ],
  "bytecode": "0x60806040523480156200001157600080fd5b5060405162002d0038038062002d00833981810160405281019062000037919062000654565b82828160039080519060200190620000519291906200050f565b5080600490805190602001906200006a9291906200050f565b5050506200007f33826200019c60201b60201c565b6200009133826200030160201b60201c565b507f68f068b2f0d02fca99bc8285b62fce8668fe16b7c6a810351ea25bff358c0dd8604051620000c190620007bd565b60405180910390a133600560006101000a81548173ffffffffffffffffffffffffffffffffffffffff021916908373ffffffffffffffffffffffffffffffffffffffff1602179055506000600760006101000a81548160ff021916908315150217905550662386f26fc100006006819055506a18d0bf423c03d8de0000006008819055506040518060400160405280601081526020017f53616c65204e6f74205374617274656400000000000000000000000000000000815250600a9080519060200190620001929291906200050f565b5050505062000b75565b600073ffffffffffffffffffffffffffffffffffffffff168273ffffffffffffffffffffffffffffffffffffffff1614156200020f576040517f08c379a0000000000000000000000000000000000000000000000000000000008152600401620002069062000801565b60405180910390fd5b62000223600083836200032f60201b60201c565b8060026000828254620002379190620008b0565b92505081905550806000808473ffffffffffffffffffffffffffffffffffffffff1673ffffffffffffffffffffffffffffffffffffffff16815260200190815260200160002060008282546200028e9190620008b0565b925050819055508173ffffffffffffffffffffffffffffffffffffffff16600073ffffffffffffffffffffffffffffffffffffffff167fddf252ad1be2c89b69c2b068fc378daa952ba7f163c4a11628f55a4df523b3ef83604051620002f5919062000823565b60405180910390a35050565b600062000325620003176200033460201b60201c565b84846200033c60201b60201c565b6001905092915050565b505050565b600033905090565b600073ffffffffffffffffffffffffffffffffffffffff168373ffffffffffffffffffffffffffffffffffffffff161415620003af576040517f08c379a0000000000000000000000000000000000000000000000000000000008152600401620003a690620007df565b60405180910390fd5b600073ffffffffffffffffffffffffffffffffffffffff168273ffffffffffffffffffffffffffffffffffffffff16141562000422576040517f08c379a000000000000000000000000000000000000000000000000000000000815260040162000419906200079b565b60405180910390fd5b80600160008573ffffffffffffffffffffffffffffffffffffffff1673ffffffffffffffffffffffffffffffffffffffff16815260200190815260200160002060008473ffffffffffffffffffffffffffffffffffffffff1673ffffffffffffffffffffffffffffffffffffffff168152602001908152602001600020819055508173ffffffffffffffffffffffffffffffffffffffff168373ffffffffffffffffffffffffffffffffffffffff167f8c5be1e5ebec7d5bd14f71427d1e84f3dd0314c0f7b2291e5b200ac8c7c3b9258360405162000502919062000823565b60405180910390a3505050565b8280546200051d906200094d565b90600052602060002090601f0160209004810192826200054157600085556200058d565b82601f106200055c57805160ff19168380011785556200058d565b828001600101855582156200058d579182015b828111156200058c5782518255916020019190600101906200056f565b5b5090506200059c9190620005a0565b5090565b5b80821115620005bb576000816000905550600101620005a1565b5090565b6000620005d6620005d08462000869565b62000840565b905082815260208101848484011115620005f557620005f462000a4b565b5b6200060284828562000917565b509392505050565b600082601f83011262000622576200062162000a46565b5b815162000634848260208601620005bf565b91505092915050565b6000815190506200064e8162000b5b565b92915050565b60008060006060848603121562000670576200066f62000a55565b5b600084015167ffffffffffffffff81111562000691576200069062000a50565b5b6200069f868287016200060a565b935050602084015167ffffffffffffffff811115620006c357620006c262000a50565b5b620006d1868287016200060a565b9250506040620006e4868287016200063d565b9150509250925092565b6000620006fd6022836200089f565b91506200070a8262000a6b565b604082019050919050565b6000620007246017836200089f565b9150620007318262000aba565b602082019050919050565b60006200074b6024836200089f565b9150620007588262000ae3565b604082019050919050565b600062000772601f836200089f565b91506200077f8262000b32565b602082019050919050565b62000795816200090d565b82525050565b60006020820190508181036000830152620007b681620006ee565b9050919050565b60006020820190508181036000830152620007d88162000715565b9050919050565b60006020820190508181036000830152620007fa816200073c565b9050919050565b600060208201905081810360008301526200081c8162000763565b9050919050565b60006020820190506200083a60008301846200078a565b92915050565b60006200084c6200085f565b90506200085a828262000983565b919050565b6000604051905090565b600067ffffffffffffffff82111562000887576200088662000a17565b5b620008928262000a5a565b9050602081019050919050565b600082825260208201905092915050565b6000620008bd826200090d565b9150620008ca836200090d565b9250827fffffffffffffffffffffffffffffffffffffffffffffffffffffffffffffffff03821115620009025762000901620009b9565b5b828201905092915050565b6000819050919050565b60005b83811015620009375780820151818401526020810190506200091a565b8381111562000947576000848401525b50505050565b600060028204905060018216806200096657607f821691505b602082108114156200097d576200097c620009e8565b5b50919050565b6200098e8262000a5a565b810181811067ffffffffffffffff82111715620009b057620009af62000a17565b5b80604052505050565b7f4e487b7100000000000000000000000000000000000000000000000000000000600052601160045260246000fd5b7f4e487b7100000000000000000000000000000000000000000000000000000000600052602260045260246000fd5b7f4e487b7100000000000000000000000000000000000000000000000000000000600052604160045260246000fd5b600080fd5b600080fd5b600080fd5b600080fd5b6000601f19601f8301169050919050565b7f45524332303a20617070726f766520746f20746865207a65726f20616464726560008201527f7373000000000000000000000000000000000000000000000000000000000000602082015250565b7f4e465420437265617465207375636365737366756c6c79000000000000000000600082015250565b7f45524332303a20617070726f76652066726f6d20746865207a65726f2061646460008201527f7265737300000000000000000000000000000000000000000000000000000000602082015250565b7f45524332303a206d696e7420746f20746865207a65726f206164647265737300600082015250565b62000b66816200090d565b811462000b7257600080fd5b50565b61217b8062000b856000396000f3fe60806040526004361061011f5760003560e01c806387792574116100a0578063a9059cbb11610064578063a9059cbb146103e0578063b66a0e5d1461041d578063dd62ed3e14610434578063e36b0b3714610471578063ff7bfae9146104885761011f565b806387792574146103065780638adf5565146103225780638da5cb5b1461034d57806395d89b4114610378578063a457c2d7146103a35761011f565b806323b872dd116100e757806323b872dd1461020d578063313ce5671461024a578063395093511461027557806355dd574c146102b257806370a08231146102c95761011f565b806306fdde0314610124578063095ea7b31461014f578063149cbaa01461018c57806317fc45e2146101b757806318160ddd146101e2575b600080fd5b34801561013057600080fd5b506101396104b1565b6040516101469190611a64565b60405180910390f35b34801561015b57600080fd5b50610176600480360381019061017191906117cb565b610543565b6040516101839190611a49565b60405180910390f35b34801561019857600080fd5b506101a1610561565b6040516101ae9190611be6565b60405180910390f35b3480156101c357600080fd5b506101cc6105a8565b6040516101d99190611be6565b60405180910390f35b3480156101ee57600080fd5b506101f76105ae565b6040516102049190611be6565b60405180910390f35b34801561021957600080fd5b50610234600480360381019061022f9190611778565b6105b8565b6040516102419190611a49565b60405180910390f35b34801561025657600080fd5b5061025f6106b9565b60405161026c9190611c01565b60405180910390f35b34801561028157600080fd5b5061029c600480360381019061029791906117cb565b6106c2565b6040516102a99190611a49565b60405180910390f35b3480156102be57600080fd5b506102c761076e565b005b3480156102d557600080fd5b506102f060048036038101906102eb919061170b565b610867565b6040516102fd9190611be6565b60405180910390f35b610320600480360381019061031b919061180b565b6108af565b005b34801561032e57600080fd5b50610337610c34565b6040516103449190611a64565b60405180910390f35b34801561035957600080fd5b50610362610cc2565b60405161036f9190611a2e565b60405180910390f35b34801561038457600080fd5b5061038d610ce8565b60405161039a9190611a64565b60405180910390f35b3480156103af57600080fd5b506103ca60048036038101906103c591906117cb565b610d7a565b6040516103d79190611a49565b60405180910390f35b3480156103ec57600080fd5b50610407600480360381019061040291906117cb565b610e6e565b6040516104149190611a49565b60405180910390f35b34801561042957600080fd5b50610432610e8c565b005b34801561044057600080fd5b5061045b60048036038101906104569190611738565b610ff8565b6040516104689190611be6565b60405180910390f35b34801561047d57600080fd5b5061048661107f565b005b34801561049457600080fd5b506104af60048036038101906104aa919061180b565b611178565b005b6060600380546104c090611da4565b80601f01602080910402602001604051908101604052809291908181526020018280546104ec90611da4565b80156105395780601f1061050e57610100808354040283529160200191610539565b820191906000526020600020905b81548152906001019060200180831161051c57829003601f168201915b5050505050905090565b60006105576105506111e7565b84846111ef565b6001905092915050565b6000600b60003373ffffffffffffffffffffffffffffffffffffffff1673ffffffffffffffffffffffffffffffffffffffff16815260200190815260200160002054905090565b60085481565b6000600254905090565b60006105c58484846113ba565b6000600160008673ffffffffffffffffffffffffffffffffffffffff1673ffffffffffffffffffffffffffffffffffffffff16815260200190815260200160002060006106106111e7565b73ffffffffffffffffffffffffffffffffffffffff1673ffffffffffffffffffffffffffffffffffffffff16815260200190815260200160002054905082811015610690576040517f08c379a000000000000000000000000000000000000000000000000000000000815260040161068790611b46565b60405180910390fd5b6106ad8561069c6111e7565b85846106a89190611ce8565b6111ef565b60019150509392505050565b60006012905090565b60006107646106cf6111e7565b8484600160006106dd6111e7565b73ffffffffffffffffffffffffffffffffffffffff1673ffffffffffffffffffffffffffffffffffffffff16815260200190815260200160002060008873ffffffffffffffffffffffffffffffffffffffff1673ffffffffffffffffffffffffffffffffffffffff1681526020019081526020016000205461075f9190611c38565b6111ef565b6001905092915050565b600560009054906101000a900473ffffffffffffffffffffffffffffffffffffffff1673ffffffffffffffffffffffffffffffffffffffff163373ffffffffffffffffffffffffffffffffffffffff16146107fe576040517f08c379a00000000000000000000000000000000000000000000000000000000081526004016107f590611bc6565b60405180910390fd5b6001600760006101000a81548160ff0219169083151502179055506040518060400160405280600881526020017f5072652d53616c65000000000000000000000000000000000000000000000000815250600a908051906020019061086492919061163e565b50565b60008060008373ffffffffffffffffffffffffffffffffffffffff1673ffffffffffffffffffffffffffffffffffffffff168152602001908152602001600020549050919050565b60011515600760009054906101000a900460ff16151514610905576040517f08c379a00000000000000000000000000000000000000000000000000000000081526004016108fc90611b26565b60405180910390fd5b6000600b60003373ffffffffffffffffffffffffffffffffffffffff1673ffffffffffffffffffffffffffffffffffffffff1681526020019081526020016000205411610987576040517f08c379a000000000000000000000000000000000000000000000000000000000815260040161097e90611aa6565b60405180910390fd5b6000816006546109979190611c8e565b905060006109c6600560009054906101000a900473ffffffffffffffffffffffffffffffffffffffff16610867565b905060008111610a0b576040517f08c379a0000000000000000000000000000000000000000000000000000000008152600401610a0290611b06565b60405180910390fd5b81600b60003373ffffffffffffffffffffffffffffffffffffffff1673ffffffffffffffffffffffffffffffffffffffff168152602001908152602001600020541015610a8c577f68f068b2f0d02fca99bc8285b62fce8668fe16b7c6a810351ea25bff358c0dd8604051610a7f90611aa6565b60405180910390a1610b2f565b610a963384610543565b50610ac4600560009054906101000a900473ffffffffffffffffffffffffffffffffffffffff1633856113ba565b82600854610ad29190611ce8565b60088190555081600b60003373ffffffffffffffffffffffffffffffffffffffff1673ffffffffffffffffffffffffffffffffffffffff1681526020019081526020016000206000828254610b279190611ce8565b925050819055505b60006008541415610c2f576a295be96e640669720000006008819055506001600954610b5b9190611c38565b6009819055506040518060400160405280600981526020017f536565642053616c650000000000000000000000000000000000000000000000815250600a9080519060200190610bac92919061163e565b5066470de4df82000060068190555060026009541415610c2e576000600760006101000a81548160ff0219169083151502179055506040518060400160405280601881526020017f53616c652069732063757272656e746c7920434c4f5345440000000000000000815250600a9080519060200190610c2c92919061163e565b505b5b505050565b600a8054610c4190611da4565b80601f0160208091040260200160405190810160405280929190818152602001828054610c6d90611da4565b8015610cba5780601f10610c8f57610100808354040283529160200191610cba565b820191906000526020600020905b815481529060010190602001808311610c9d57829003601f168201915b505050505081565b600560009054906101000a900473ffffffffffffffffffffffffffffffffffffffff1681565b606060048054610cf790611da4565b80601f0160208091040260200160405190810160405280929190818152602001828054610d2390611da4565b8015610d705780601f10610d4557610100808354040283529160200191610d70565b820191906000526020600020905b815481529060010190602001808311610d5357829003601f168201915b5050505050905090565b60008060016000610d896111e7565b73ffffffffffffffffffffffffffffffffffffffff1673ffffffffffffffffffffffffffffffffffffffff16815260200190815260200160002060008573ffffffffffffffffffffffffffffffffffffffff1673ffffffffffffffffffffffffffffffffffffffff16815260200190815260200160002054905082811015610e46576040517f08c379a0000000000000000000000000000000000000000000000000000000008152600401610e3d90611ba6565b60405180910390fd5b610e63610e516111e7565b858584610e5e9190611ce8565b6111ef565b600191505092915050565b6000610e82610e7b6111e7565b84846113ba565b6001905092915050565b600560009054906101000a900473ffffffffffffffffffffffffffffffffffffffff1673ffffffffffffffffffffffffffffffffffffffff163373ffffffffffffffffffffffffffffffffffffffff1614610f1c576040517f08c379a0000000000000000000000000000000000000000000000000000000008152600401610f1390611bc6565b60405180910390fd5b6000610f49600560009054906101000a900473ffffffffffffffffffffffffffffffffffffffff16610867565b905060008111610f8e576040517f08c379a0000000000000000000000000000000000000000000000000000000008152600401610f8590611b06565b60405180910390fd5b6040518060400160405280600a81526020017f46696e616c2053616c6500000000000000000000000000000000000000000000815250600a9080519060200190610fd992919061163e565b506001600760006101000a81548160ff02191690831515021790555050565b6000600160008473ffffffffffffffffffffffffffffffffffffffff1673ffffffffffffffffffffffffffffffffffffffff16815260200190815260200160002060008373ffffffffffffffffffffffffffffffffffffffff1673ffffffffffffffffffffffffffffffffffffffff16815260200190815260200160002054905092915050565b600560009054906101000a900473ffffffffffffffffffffffffffffffffffffffff1673ffffffffffffffffffffffffffffffffffffffff163373ffffffffffffffffffffffffffffffffffffffff161461110f576040517f08c379a000000000000000000000000000000000000000000000000000000000815260040161110690611bc6565b60405180910390fd5b6040518060400160405280601881526020017f53616c652069732063757272656e746c7920434c4f5345440000000000000000815250600a908051906020019061115a92919061163e565b506000600760006101000a81548160ff021916908315150217905550565b670de0b6b3a76400008161118c9190611c8e565b905080600b60003373ffffffffffffffffffffffffffffffffffffffff1673ffffffffffffffffffffffffffffffffffffffff16815260200190815260200160002060008282546111dd9190611c38565b9250508190555050565b600033905090565b600073ffffffffffffffffffffffffffffffffffffffff168373ffffffffffffffffffffffffffffffffffffffff16141561125f576040517f08c379a000000000000000000000000000000000000000000000000000000000815260040161125690611b86565b60405180910390fd5b600073ffffffffffffffffffffffffffffffffffffffff168273ffffffffffffffffffffffffffffffffffffffff1614156112cf576040517f08c379a00000000000000000000000000000000000000000000000000000000081526004016112c690611ac6565b60405180910390fd5b80600160008573ffffffffffffffffffffffffffffffffffffffff1673ffffffffffffffffffffffffffffffffffffffff16815260200190815260200160002060008473ffffffffffffffffffffffffffffffffffffffff1673ffffffffffffffffffffffffffffffffffffffff168152602001908152602001600020819055508173ffffffffffffffffffffffffffffffffffffffff168373ffffffffffffffffffffffffffffffffffffffff167f8c5be1e5ebec7d5bd14f71427d1e84f3dd0314c0f7b2291e5b200ac8c7c3b925836040516113ad9190611be6565b60405180910390a3505050565b600073ffffffffffffffffffffffffffffffffffffffff168373ffffffffffffffffffffffffffffffffffffffff16141561142a576040517f08c379a000000000000000000000000000000000000000000000000000000000815260040161142190611b66565b60405180910390fd5b600073ffffffffffffffffffffffffffffffffffffffff168273ffffffffffffffffffffffffffffffffffffffff16141561149a576040517f08c379a000000000000000000000000000000000000000000000000000000000815260040161149190611a86565b60405180910390fd5b6114a5838383611639565b60008060008573ffffffffffffffffffffffffffffffffffffffff1673ffffffffffffffffffffffffffffffffffffffff1681526020019081526020016000205490508181101561152b576040517f08c379a000000000000000000000000000000000000000000000000000000000815260040161152290611ae6565b60405180910390fd5b81816115379190611ce8565b6000808673ffffffffffffffffffffffffffffffffffffffff1673ffffffffffffffffffffffffffffffffffffffff16815260200190815260200160002081905550816000808573ffffffffffffffffffffffffffffffffffffffff1673ffffffffffffffffffffffffffffffffffffffff16815260200190815260200160002060008282546115c79190611c38565b925050819055508273ffffffffffffffffffffffffffffffffffffffff168473ffffffffffffffffffffffffffffffffffffffff167fddf252ad1be2c89b69c2b068fc378daa952ba7f163c4a11628f55a4df523b3ef8460405161162b9190611be6565b60405180910390a350505050565b505050565b82805461164a90611da4565b90600052602060002090601f01602090048101928261166c57600085556116b3565b82601f1061168557805160ff19168380011785556116b3565b828001600101855582156116b3579182015b828111156116b2578251825591602001919060010190611697565b5b5090506116c091906116c4565b5090565b5b808211156116dd5760008160009055506001016116c5565b5090565b6000813590506116f081612117565b92915050565b6000813590506117058161212e565b92915050565b60006020828403121561172157611720611e34565b5b600061172f848285016116e1565b91505092915050565b6000806040838503121561174f5761174e611e34565b5b600061175d858286016116e1565b925050602061176e858286016116e1565b9150509250929050565b60008060006060848603121561179157611790611e34565b5b600061179f868287016116e1565b93505060206117b0868287016116e1565b92505060406117c1868287016116f6565b9150509250925092565b600080604083850312156117e2576117e1611e34565b5b60006117f0858286016116e1565b9250506020611801858286016116f6565b9150509250929050565b60006020828403121561182157611820611e34565b5b600061182f848285016116f6565b91505092915050565b61184181611d1c565b82525050565b61185081611d2e565b82525050565b600061186182611c1c565b61186b8185611c27565b935061187b818560208601611d71565b61188481611e39565b840191505092915050565b600061189c602383611c27565b91506118a782611e4a565b604082019050919050565b60006118bf600b83611c27565b91506118ca82611e99565b602082019050919050565b60006118e2602283611c27565b91506118ed82611ec2565b604082019050919050565b6000611905602683611c27565b915061191082611f11565b604082019050919050565b6000611928600d83611c27565b915061193382611f60565b602082019050919050565b600061194b601083611c27565b915061195682611f89565b602082019050919050565b600061196e602883611c27565b915061197982611fb2565b604082019050919050565b6000611991602583611c27565b915061199c82612001565b604082019050919050565b60006119b4602483611c27565b91506119bf82612050565b604082019050919050565b60006119d7602583611c27565b91506119e28261209f565b604082019050919050565b60006119fa601183611c27565b9150611a05826120ee565b602082019050919050565b611a1981611d5a565b82525050565b611a2881611d64565b82525050565b6000602082019050611a436000830184611838565b92915050565b6000602082019050611a5e6000830184611847565b92915050565b60006020820190508181036000830152611a7e8184611856565b905092915050565b60006020820190508181036000830152611a9f8161188f565b9050919050565b60006020820190508181036000830152611abf816118b2565b9050919050565b60006020820190508181036000830152611adf816118d5565b9050919050565b60006020820190508181036000830152611aff816118f8565b9050919050565b60006020820190508181036000830152611b1f8161191b565b9050919050565b60006020820190508181036000830152611b3f8161193e565b9050919050565b60006020820190508181036000830152611b5f81611961565b9050919050565b60006020820190508181036000830152611b7f81611984565b9050919050565b60006020820190508181036000830152611b9f816119a7565b9050919050565b60006020820190508181036000830152611bbf816119ca565b9050919050565b60006020820190508181036000830152611bdf816119ed565b9050919050565b6000602082019050611bfb6000830184611a10565b92915050565b6000602082019050611c166000830184611a1f565b92915050565b600081519050919050565b600082825260208201905092915050565b6000611c4382611d5a565b9150611c4e83611d5a565b9250827fffffffffffffffffffffffffffffffffffffffffffffffffffffffffffffffff03821115611c8357611c82611dd6565b5b828201905092915050565b6000611c9982611d5a565b9150611ca483611d5a565b9250817fffffffffffffffffffffffffffffffffffffffffffffffffffffffffffffffff0483118215151615611cdd57611cdc611dd6565b5b828202905092915050565b6000611cf382611d5a565b9150611cfe83611d5a565b925082821015611d1157611d10611dd6565b5b828203905092915050565b6000611d2782611d3a565b9050919050565b60008115159050919050565b600073ffffffffffffffffffffffffffffffffffffffff82169050919050565b6000819050919050565b600060ff82169050919050565b60005b83811015611d8f578082015181840152602081019050611d74565b83811115611d9e576000848401525b50505050565b60006002820490506001821680611dbc57607f821691505b60208210811415611dd057611dcf611e05565b5b50919050565b7f4e487b7100000000000000000000000000000000000000000000000000000000600052601160045260246000fd5b7f4e487b7100000000000000000000000000000000000000000000000000000000600052602260045260246000fd5b600080fd5b6000601f19601f8301169050919050565b7f45524332303a207472616e7366657220746f20746865207a65726f206164647260008201527f6573730000000000000000000000000000000000000000000000000000000000602082015250565b7f4c6f772042616c616e6365000000000000000000000000000000000000000000600082015250565b7f45524332303a20617070726f766520746f20746865207a65726f20616464726560008201527f7373000000000000000000000000000000000000000000000000000000000000602082015250565b7f45524332303a207472616e7366657220616d6f756e742065786365656473206260008201527f616c616e63650000000000000000000000000000000000000000000000000000602082015250565b7f456e64206f6620537570706c7900000000000000000000000000000000000000600082015250565b7f53616c65204e6f74205374617274656400000000000000000000000000000000600082015250565b7f45524332303a207472616e7366657220616d6f756e742065786365656473206160008201527f6c6c6f77616e6365000000000000000000000000000000000000000000000000602082015250565b7f45524332303a207472616e736665722066726f6d20746865207a65726f20616460008201527f6472657373000000000000000000000000000000000000000000000000000000602082015250565b7f45524332303a20617070726f76652066726f6d20746865207a65726f2061646460008201527f7265737300000000000000000000000000000000000000000000000000000000602082015250565b7f45524332303a2064656372656173656420616c6c6f77616e63652062656c6f7760008201527f207a65726f000000000000000000000000000000000000000000000000000000602082015250565b7f596f7520617265206e6f74206f776e6572000000000000000000000000000000600082015250565b61212081611d1c565b811461212b57600080fd5b50565b61213781611d5a565b811461214257600080fd5b5056fea2646970667358221220865e598f53bc813e80f23072383e7b47966baeb3bb44703cc8821c29ea39b36364736f6c63430008050033",
  "immutableReferences": {},
  "source": "pragma solidity ^0.8.0;\r\n\r\nimport \"@openzeppelin/contracts/token/ERC20/ERC20.sol\";  \r\ncontract offering is ERC20{\r\n    \r\n    address public owner;\r\n    uint coinPrice;\r\n    bool sale;\r\n    uint public quantity;\r\n    uint saleCount;\r\n    string public saleName;\r\n\r\n      event success(string);\r\n    \r\n        constructor (\r\n            string memory _name,\r\n            string memory _symbol,\r\n            uint  _initial_supply\r\n            \r\n        )\r\n        public\r\n           \r\n        ERC20(_name, _symbol)\r\n        {\r\n            _mint(msg.sender, _initial_supply );\r\n            approve(msg.sender, _initial_supply);\r\n            emit success(\"NFT Create successfully\");\r\n            owner = msg.sender;\r\n            sale = false;\r\n            coinPrice = 10000000000000000;\r\n            quantity = 30000000000000000000000000;\r\n            saleName = \"Sale Not Started\";\r\n        }\r\n        \r\n        \r\n            modifier checkOwner(){\r\n                require (msg.sender == owner, \"You are not owner\");\r\n                _;\r\n            }\r\n        \r\n            modifier isSaleOn(){\r\n                require (sale == true, \"Sale Not Started\");\r\n                _;\r\n            }\r\n\r\n        mapping(address=>uint)balance;\r\n        \r\n        function startPreSale() public checkOwner{\r\n            sale = true;\r\n            saleName = \"Pre-Sale\";\r\n        }\r\n        \r\n        function rechargeMyWallet(uint _amount)public{\r\n        _amount = _amount * 1000000000000000000;\r\n           balance[msg.sender] += _amount;\r\n        }\r\n        \r\n        function myWalletBalance()public view returns(uint)\r\n        {\r\n            return balance[msg.sender];\r\n        }\r\n        \r\n        function startSale() public checkOwner{\r\n            uint supply = balanceOf(owner);\r\n            require(supply>0,\"End of Supply\");\r\n            saleName = \"Final Sale\";\r\n            sale = true;\r\n        }\r\n        \r\n        function stopSale() public checkOwner{\r\n           \r\n            saleName = \"Sale is currently CLOSED\";\r\n            sale = false;\r\n        }\r\n        \r\n        function buyCoin(uint _amount) public isSaleOn payable{\r\n            require(balance[msg.sender]>0,\"Low Balance\");\r\n            \r\n            uint totalAmount = coinPrice * _amount;\r\n            uint supply = balanceOf(owner);\r\n            require(supply>0,\"End of Supply\");\r\n\r\n                if(balance[msg.sender]<totalAmount)\r\n                    {\r\n                        emit success(\"Low Balance\");\r\n                    }\r\n                else\r\n                    {\r\n                        approve(msg.sender, _amount); \r\n                    \r\n                        //can transfer coins using ETH\r\n                        //payable(owner).transfer(_amount);\r\n                        \r\n                        _transfer(owner,msg.sender,_amount);   \r\n                        quantity = quantity - _amount;\r\n                        balance[msg.sender] -=totalAmount;\r\n                    }\r\n                    \r\n                if( quantity == 0)\r\n                    {\r\n                        quantity = 50000000000000000000000000;\r\n                        saleCount=saleCount+1;\r\n                        saleName = \"Seed Sale\";\r\n                        coinPrice = 20000000000000000;\r\n                        if(saleCount==2)\r\n                        {\r\n                            sale = false;\r\n                            saleName = \"Sale is currently CLOSED\";\r\n                        }\r\n            \r\n                    }\r\n\r\n        }\r\n    \r\n}",
  "sourcePath": "G:/Blockchain Study Material/Projects/SoluLab/contracts/offering.sol",
  "compiler": {
    "name": "solc",
    "version": "0.8.5+commit.a4f2e591.Emscripten.clang"
  },
  "schemaVersion": "3.3.4",
  "updatedAt": "2021-06-18T04:10:26.539Z",
  "networkType": "ethereum",
  "devdoc": {
    "kind": "dev",
    "methods": {
      "allowance(address,address)": {
        "details": "See {IERC20-allowance}."
      },
      "approve(address,uint256)": {
        "details": "See {IERC20-approve}. Requirements: - `spender` cannot be the zero address."
      },
      "balanceOf(address)": {
        "details": "See {IERC20-balanceOf}."
      },
      "decimals()": {
        "details": "Returns the number of decimals used to get its user representation. For example, if `decimals` equals `2`, a balance of `505` tokens should be displayed to a user as `5,05` (`505 / 10 ** 2`). Tokens usually opt for a value of 18, imitating the relationship between Ether and Wei. This is the value {ERC20} uses, unless this function is overridden; NOTE: This information is only used for _display_ purposes: it in no way affects any of the arithmetic of the contract, including {IERC20-balanceOf} and {IERC20-transfer}."
      },
      "decreaseAllowance(address,uint256)": {
        "details": "Atomically decreases the allowance granted to `spender` by the caller. This is an alternative to {approve} that can be used as a mitigation for problems described in {IERC20-approve}. Emits an {Approval} event indicating the updated allowance. Requirements: - `spender` cannot be the zero address. - `spender` must have allowance for the caller of at least `subtractedValue`."
      },
      "increaseAllowance(address,uint256)": {
        "details": "Atomically increases the allowance granted to `spender` by the caller. This is an alternative to {approve} that can be used as a mitigation for problems described in {IERC20-approve}. Emits an {Approval} event indicating the updated allowance. Requirements: - `spender` cannot be the zero address."
      },
      "name()": {
        "details": "Returns the name of the token."
      },
      "symbol()": {
        "details": "Returns the symbol of the token, usually a shorter version of the name."
      },
      "totalSupply()": {
        "details": "See {IERC20-totalSupply}."
      },
      "transfer(address,uint256)": {
        "details": "See {IERC20-transfer}. Requirements: - `recipient` cannot be the zero address. - the caller must have a balance of at least `amount`."
      },
      "transferFrom(address,address,uint256)": {
        "details": "See {IERC20-transferFrom}. Emits an {Approval} event indicating the updated allowance. This is not required by the EIP. See the note at the beginning of {ERC20}. Requirements: - `sender` and `recipient` cannot be the zero address. - `sender` must have a balance of at least `amount`. - the caller must have allowance for ``sender``'s tokens of at least `amount`."
      }
    },
    "version": 1
  },
  "userdoc": {
    "kind": "user",
    "methods": {},
    "version": 1
  }
}